{
	"contracts/subquest-add-compound-1.sol": {
		"SmartBankAccount": {
			"abi": [
				{
					"inputs": [],
					"name": "addBalance",
					"outputs": [],
					"stateMutability": "payable",
					"type": "function"
				},
				{
					"inputs": [],
					"name": "addMoneyToContract",
					"outputs": [],
					"stateMutability": "payable",
					"type": "function"
				},
				{
					"inputs": [
						{
							"internalType": "address",
							"name": "userAddress",
							"type": "address"
						}
					],
					"name": "getBalance",
					"outputs": [
						{
							"internalType": "uint256",
							"name": "",
							"type": "uint256"
						}
					],
					"stateMutability": "view",
					"type": "function"
				},
				{
					"inputs": [],
					"name": "getContractBalance",
					"outputs": [
						{
							"internalType": "uint256",
							"name": "",
							"type": "uint256"
						}
					],
					"stateMutability": "view",
					"type": "function"
				},
				{
					"inputs": [],
					"name": "withdraw",
					"outputs": [],
					"stateMutability": "payable",
					"type": "function"
				}
			],
			"devdoc": {
				"kind": "dev",
				"methods": {},
				"version": 1
			},
			"evm": {
				"assembly": "    /* \"contracts/subquest-add-compound-1.sol\":499:1894  contract SmartBankAccount {... */\n  mstore(0x40, 0x80)\n    /* \"contracts/subquest-add-compound-1.sol\":561:562  0 */\n  0x00\n    /* \"contracts/subquest-add-compound-1.sol\":533:562  uint totalContractBalance = 0 */\n  dup1\n  sstore\n    /* \"contracts/subquest-add-compound-1.sol\":605:647  0x859e9d8a4edadfEDb5A2fF311243af80F85A91b8 */\n  0x859e9d8a4edadfedb5a2ff311243af80f85a91b8\n    /* \"contracts/subquest-add-compound-1.sol\":573:647  address COMPOUND_CETH_ADDRESS = 0x859e9d8a4edadfEDb5A2fF311243af80F85A91b8 */\n  0x01\n  exp(0x0100, 0x00)\n  dup2\n  sload\n  dup2\n  0xffffffffffffffffffffffffffffffffffffffff\n  mul\n  not\n  and\n  swap1\n  dup4\n  0xffffffffffffffffffffffffffffffffffffffff\n  and\n  mul\n  or\n  swap1\n  sstore\n  pop\n    /* \"contracts/subquest-add-compound-1.sol\":670:691  COMPOUND_CETH_ADDRESS */\n  0x01\n  0x00\n  swap1\n  sload\n  swap1\n  0x0100\n  exp\n  swap1\n  div\n  0xffffffffffffffffffffffffffffffffffffffff\n  and\n    /* \"contracts/subquest-add-compound-1.sol\":653:692  cETH ceth = cETH(COMPOUND_CETH_ADDRESS) */\n  0x02\n  exp(0x0100, 0x00)\n  dup2\n  sload\n  dup2\n  0xffffffffffffffffffffffffffffffffffffffff\n  mul\n  not\n  and\n  swap1\n  dup4\n  0xffffffffffffffffffffffffffffffffffffffff\n  and\n  mul\n  or\n  swap1\n  sstore\n  pop\n    /* \"contracts/subquest-add-compound-1.sol\":499:1894  contract SmartBankAccount {... */\n  callvalue\n  dup1\n  iszero\n  tag_1\n  jumpi\n  0x00\n  dup1\n  revert\ntag_1:\n  pop\n  dataSize(sub_0)\n  dup1\n  dataOffset(sub_0)\n  0x00\n  codecopy\n  0x00\n  return\nstop\n\nsub_0: assembly {\n        /* \"contracts/subquest-add-compound-1.sol\":499:1894  contract SmartBankAccount {... */\n      mstore(0x40, 0x80)\n      jumpi(tag_1, lt(calldatasize, 0x04))\n      shr(0xe0, calldataload(0x00))\n      dup1\n      0x1834ef4e\n      eq\n      tag_2\n      jumpi\n      dup1\n      0x3ccfd60b\n      eq\n      tag_3\n      jumpi\n      dup1\n      0x6f9fb98a\n      eq\n      tag_4\n      jumpi\n      dup1\n      0xb163cc38\n      eq\n      tag_5\n      jumpi\n      dup1\n      0xf8b2cb4f\n      eq\n      tag_6\n      jumpi\n    tag_1:\n      0x00\n      dup1\n      revert\n        /* \"contracts/subquest-add-compound-1.sol\":1791:1886  function addMoneyToContract() public payable {... */\n    tag_2:\n      tag_7\n      tag_8\n      jump\t// in\n    tag_7:\n      stop\n        /* \"contracts/subquest-add-compound-1.sol\":1377:1781  function withdraw() public payable {... */\n    tag_3:\n      tag_9\n      tag_10\n      jump\t// in\n    tag_9:\n      stop\n        /* \"contracts/subquest-add-compound-1.sol\":699:798  function getContractBalance() public view returns(uint){... */\n    tag_4:\n      callvalue\n      dup1\n      iszero\n      tag_11\n      jumpi\n      0x00\n      dup1\n      revert\n    tag_11:\n      pop\n      tag_12\n      tag_13\n      jump\t// in\n    tag_12:\n      mload(0x40)\n      tag_14\n      swap2\n      swap1\n      tag_15\n      jump\t// in\n    tag_14:\n      mload(0x40)\n      dup1\n      swap2\n      sub\n      swap1\n      return\n        /* \"contracts/subquest-add-compound-1.sol\":900:1198  function addBalance() public payable {... */\n    tag_5:\n      tag_16\n      tag_17\n      jump\t// in\n    tag_16:\n      stop\n        /* \"contracts/subquest-add-compound-1.sol\":1208:1367  function getBalance(address userAddress) public view returns(uint256) {... */\n    tag_6:\n      callvalue\n      dup1\n      iszero\n      tag_18\n      jumpi\n      0x00\n      dup1\n      revert\n    tag_18:\n      pop\n      tag_19\n      0x04\n      dup1\n      calldatasize\n      sub\n      dup2\n      add\n      swap1\n      tag_20\n      swap2\n      swap1\n      tag_21\n      jump\t// in\n    tag_20:\n      tag_22\n      jump\t// in\n    tag_19:\n      mload(0x40)\n      tag_23\n      swap2\n      swap1\n      tag_15\n      jump\t// in\n    tag_23:\n      mload(0x40)\n      dup1\n      swap2\n      sub\n      swap1\n      return\n        /* \"contracts/subquest-add-compound-1.sol\":1791:1886  function addMoneyToContract() public payable {... */\n    tag_8:\n        /* \"contracts/subquest-add-compound-1.sol\":1870:1879  msg.value */\n      callvalue\n        /* \"contracts/subquest-add-compound-1.sol\":1846:1866  totalContractBalance */\n      0x00\n      dup1\n        /* \"contracts/subquest-add-compound-1.sol\":1846:1879  totalContractBalance += msg.value */\n      dup3\n      dup3\n      sload\n      tag_25\n      swap2\n      swap1\n      tag_26\n      jump\t// in\n    tag_25:\n      swap3\n      pop\n      pop\n      dup2\n      swap1\n      sstore\n      pop\n        /* \"contracts/subquest-add-compound-1.sol\":1791:1886  function addMoneyToContract() public payable {... */\n      jump\t// out\n        /* \"contracts/subquest-add-compound-1.sol\":1377:1781  function withdraw() public payable {... */\n    tag_10:\n        /* \"contracts/subquest-add-compound-1.sol\":1510:1536  address payable withdrawTo */\n      0x00\n        /* \"contracts/subquest-add-compound-1.sol\":1547:1557  msg.sender */\n      caller\n        /* \"contracts/subquest-add-compound-1.sol\":1510:1558  address payable withdrawTo = payable(msg.sender) */\n      swap1\n      pop\n        /* \"contracts/subquest-add-compound-1.sol\":1568:1589  uint amountToTransfer */\n      0x00\n        /* \"contracts/subquest-add-compound-1.sol\":1592:1614  getBalance(msg.sender) */\n      tag_28\n        /* \"contracts/subquest-add-compound-1.sol\":1603:1613  msg.sender */\n      caller\n        /* \"contracts/subquest-add-compound-1.sol\":1592:1602  getBalance */\n      tag_22\n        /* \"contracts/subquest-add-compound-1.sol\":1592:1614  getBalance(msg.sender) */\n      jump\t// in\n    tag_28:\n        /* \"contracts/subquest-add-compound-1.sol\":1568:1614  uint amountToTransfer = getBalance(msg.sender) */\n      swap1\n      pop\n        /* \"contracts/subquest-add-compound-1.sol\":1679:1695  amountToTransfer */\n      dup1\n        /* \"contracts/subquest-add-compound-1.sol\":1656:1676  totalContractBalance */\n      sload(0x00)\n        /* \"contracts/subquest-add-compound-1.sol\":1656:1695  totalContractBalance - amountToTransfer */\n      tag_29\n      swap2\n      swap1\n      tag_30\n      jump\t// in\n    tag_29:\n        /* \"contracts/subquest-add-compound-1.sol\":1633:1653  totalContractBalance */\n      0x00\n        /* \"contracts/subquest-add-compound-1.sol\":1633:1695  totalContractBalance = totalContractBalance - amountToTransfer */\n      dup2\n      swap1\n      sstore\n      pop\n        /* \"contracts/subquest-add-compound-1.sol\":1728:1729  0 */\n      0x00\n        /* \"contracts/subquest-add-compound-1.sol\":1705:1713  balances */\n      0x03\n        /* \"contracts/subquest-add-compound-1.sol\":1705:1725  balances[msg.sender] */\n      0x00\n        /* \"contracts/subquest-add-compound-1.sol\":1714:1724  msg.sender */\n      caller\n        /* \"contracts/subquest-add-compound-1.sol\":1705:1725  balances[msg.sender] */\n      0xffffffffffffffffffffffffffffffffffffffff\n      and\n      0xffffffffffffffffffffffffffffffffffffffff\n      and\n      dup2\n      mstore\n      0x20\n      add\n      swap1\n      dup2\n      mstore\n      0x20\n      add\n      0x00\n      keccak256\n        /* \"contracts/subquest-add-compound-1.sol\":1705:1729  balances[msg.sender] = 0 */\n      dup2\n      swap1\n      sstore\n      pop\n        /* \"contracts/subquest-add-compound-1.sol\":1739:1743  ceth */\n      0x02\n      0x00\n      swap1\n      sload\n      swap1\n      0x0100\n      exp\n      swap1\n      div\n      0xffffffffffffffffffffffffffffffffffffffff\n      and\n        /* \"contracts/subquest-add-compound-1.sol\":1739:1750  ceth.redeem */\n      0xffffffffffffffffffffffffffffffffffffffff\n      and\n      0xdb006a75\n        /* \"contracts/subquest-add-compound-1.sol\":1751:1773  getBalance(msg.sender) */\n      tag_31\n        /* \"contracts/subquest-add-compound-1.sol\":1762:1772  msg.sender */\n      caller\n        /* \"contracts/subquest-add-compound-1.sol\":1751:1761  getBalance */\n      tag_22\n        /* \"contracts/subquest-add-compound-1.sol\":1751:1773  getBalance(msg.sender) */\n      jump\t// in\n    tag_31:\n        /* \"contracts/subquest-add-compound-1.sol\":1739:1774  ceth.redeem(getBalance(msg.sender)) */\n      mload(0x40)\n      dup3\n      0xffffffff\n      and\n      0xe0\n      shl\n      dup2\n      mstore\n      0x04\n      add\n      tag_32\n      swap2\n      swap1\n      tag_15\n      jump\t// in\n    tag_32:\n      0x20\n      mload(0x40)\n      dup1\n      dup4\n      sub\n      dup2\n      0x00\n      dup8\n      dup1\n      extcodesize\n      iszero\n      dup1\n      iszero\n      tag_33\n      jumpi\n      0x00\n      dup1\n      revert\n    tag_33:\n      pop\n      gas\n      call\n      iszero\n      dup1\n      iszero\n      tag_35\n      jumpi\n      returndatasize\n      0x00\n      dup1\n      returndatacopy\n      revert(0x00, returndatasize)\n    tag_35:\n      pop\n      pop\n      pop\n      pop\n      mload(0x40)\n      returndatasize\n      not(0x1f)\n      0x1f\n      dup3\n      add\n      and\n      dup3\n      add\n      dup1\n      0x40\n      mstore\n      pop\n      dup2\n      add\n      swap1\n      tag_36\n      swap2\n      swap1\n      tag_37\n      jump\t// in\n    tag_36:\n      pop\n        /* \"contracts/subquest-add-compound-1.sol\":1377:1781  function withdraw() public payable {... */\n      pop\n      pop\n      jump\t// out\n        /* \"contracts/subquest-add-compound-1.sol\":699:798  function getContractBalance() public view returns(uint){... */\n    tag_13:\n        /* \"contracts/subquest-add-compound-1.sol\":749:753  uint */\n      0x00\n        /* \"contracts/subquest-add-compound-1.sol\":771:791  totalContractBalance */\n      dup1\n      sload\n        /* \"contracts/subquest-add-compound-1.sol\":764:791  return totalContractBalance */\n      swap1\n      pop\n        /* \"contracts/subquest-add-compound-1.sol\":699:798  function getContractBalance() public view returns(uint){... */\n      swap1\n      jump\t// out\n        /* \"contracts/subquest-add-compound-1.sol\":900:1198  function addBalance() public payable {... */\n    tag_17:\n        /* \"contracts/subquest-add-compound-1.sol\":970:979  msg.value */\n      callvalue\n        /* \"contracts/subquest-add-compound-1.sol\":947:955  balances */\n      0x03\n        /* \"contracts/subquest-add-compound-1.sol\":947:967  balances[msg.sender] */\n      0x00\n        /* \"contracts/subquest-add-compound-1.sol\":956:966  msg.sender */\n      caller\n        /* \"contracts/subquest-add-compound-1.sol\":947:967  balances[msg.sender] */\n      0xffffffffffffffffffffffffffffffffffffffff\n      and\n      0xffffffffffffffffffffffffffffffffffffffff\n      and\n      dup2\n      mstore\n      0x20\n      add\n      swap1\n      dup2\n      mstore\n      0x20\n      add\n      0x00\n      keccak256\n        /* \"contracts/subquest-add-compound-1.sol\":947:979  balances[msg.sender] = msg.value */\n      dup2\n      swap1\n      sstore\n      pop\n        /* \"contracts/subquest-add-compound-1.sol\":1035:1044  msg.value */\n      callvalue\n        /* \"contracts/subquest-add-compound-1.sol\":1012:1032  totalContractBalance */\n      sload(0x00)\n        /* \"contracts/subquest-add-compound-1.sol\":1012:1044  totalContractBalance + msg.value */\n      tag_40\n      swap2\n      swap1\n      tag_26\n      jump\t// in\n    tag_40:\n        /* \"contracts/subquest-add-compound-1.sol\":989:1009  totalContractBalance */\n      0x00\n        /* \"contracts/subquest-add-compound-1.sol\":989:1044  totalContractBalance = totalContractBalance + msg.value */\n      dup2\n      swap1\n      sstore\n      pop\n        /* \"contracts/subquest-add-compound-1.sol\":1086:1101  block.timestamp */\n      timestamp\n        /* \"contracts/subquest-add-compound-1.sol\":1054:1071  depositTimestamps */\n      0x04\n        /* \"contracts/subquest-add-compound-1.sol\":1054:1083  depositTimestamps[msg.sender] */\n      0x00\n        /* \"contracts/subquest-add-compound-1.sol\":1072:1082  msg.sender */\n      caller\n        /* \"contracts/subquest-add-compound-1.sol\":1054:1083  depositTimestamps[msg.sender] */\n      0xffffffffffffffffffffffffffffffffffffffff\n      and\n      0xffffffffffffffffffffffffffffffffffffffff\n      and\n      dup2\n      mstore\n      0x20\n      add\n      swap1\n      dup2\n      mstore\n      0x20\n      add\n      0x00\n      keccak256\n        /* \"contracts/subquest-add-compound-1.sol\":1054:1101  depositTimestamps[msg.sender] = block.timestamp */\n      dup2\n      swap1\n      sstore\n      pop\n        /* \"contracts/subquest-add-compound-1.sol\":1153:1157  ceth */\n      0x02\n      0x00\n      swap1\n      sload\n      swap1\n      0x0100\n      exp\n      swap1\n      div\n      0xffffffffffffffffffffffffffffffffffffffff\n      and\n        /* \"contracts/subquest-add-compound-1.sol\":1153:1162  ceth.mint */\n      0xffffffffffffffffffffffffffffffffffffffff\n      and\n      0x1249c58b\n        /* \"contracts/subquest-add-compound-1.sol\":1170:1179  msg.value */\n      callvalue\n        /* \"contracts/subquest-add-compound-1.sol\":1153:1182  ceth.mint{value: msg.value}() */\n      mload(0x40)\n      dup3\n      0xffffffff\n      and\n      0xe0\n      shl\n      dup2\n      mstore\n      0x04\n      add\n      0x00\n      mload(0x40)\n      dup1\n      dup4\n      sub\n      dup2\n      dup6\n      dup9\n      dup1\n      extcodesize\n      iszero\n      dup1\n      iszero\n      tag_41\n      jumpi\n      0x00\n      dup1\n      revert\n    tag_41:\n      pop\n      gas\n      call\n      iszero\n      dup1\n      iszero\n      tag_43\n      jumpi\n      returndatasize\n      0x00\n      dup1\n      returndatacopy\n      revert(0x00, returndatasize)\n    tag_43:\n      pop\n      pop\n      pop\n      pop\n      pop\n        /* \"contracts/subquest-add-compound-1.sol\":900:1198  function addBalance() public payable {... */\n      jump\t// out\n        /* \"contracts/subquest-add-compound-1.sol\":1208:1367  function getBalance(address userAddress) public view returns(uint256) {... */\n    tag_22:\n        /* \"contracts/subquest-add-compound-1.sol\":1269:1276  uint256 */\n      0x00\n        /* \"contracts/subquest-add-compound-1.sol\":1347:1351  1e18 */\n      0x0de0b6b3a7640000\n        /* \"contracts/subquest-add-compound-1.sol\":1319:1323  ceth */\n      0x02\n      0x00\n      swap1\n      sload\n      swap1\n      0x0100\n      exp\n      swap1\n      div\n      0xffffffffffffffffffffffffffffffffffffffff\n      and\n        /* \"contracts/subquest-add-compound-1.sol\":1319:1342  ceth.exchangeRateStored */\n      0xffffffffffffffffffffffffffffffffffffffff\n      and\n      0x182df0f5\n        /* \"contracts/subquest-add-compound-1.sol\":1319:1344  ceth.exchangeRateStored() */\n      mload(0x40)\n      dup2\n      0xffffffff\n      and\n      0xe0\n      shl\n      dup2\n      mstore\n      0x04\n      add\n      0x20\n      mload(0x40)\n      dup1\n      dup4\n      sub\n      dup2\n      dup7\n      dup1\n      extcodesize\n      iszero\n      dup1\n      iszero\n      tag_45\n      jumpi\n      0x00\n      dup1\n      revert\n    tag_45:\n      pop\n      gas\n      staticcall\n      iszero\n      dup1\n      iszero\n      tag_47\n      jumpi\n      returndatasize\n      0x00\n      dup1\n      returndatacopy\n      revert(0x00, returndatasize)\n    tag_47:\n      pop\n      pop\n      pop\n      pop\n      mload(0x40)\n      returndatasize\n      not(0x1f)\n      0x1f\n      dup3\n      add\n      and\n      dup3\n      add\n      dup1\n      0x40\n      mstore\n      pop\n      dup2\n      add\n      swap1\n      tag_48\n      swap2\n      swap1\n      tag_37\n      jump\t// in\n    tag_48:\n        /* \"contracts/subquest-add-compound-1.sol\":1295:1303  balances */\n      0x03\n        /* \"contracts/subquest-add-compound-1.sol\":1295:1316  balances[userAddress] */\n      0x00\n        /* \"contracts/subquest-add-compound-1.sol\":1304:1315  userAddress */\n      dup6\n        /* \"contracts/subquest-add-compound-1.sol\":1295:1316  balances[userAddress] */\n      0xffffffffffffffffffffffffffffffffffffffff\n      and\n      0xffffffffffffffffffffffffffffffffffffffff\n      and\n      dup2\n      mstore\n      0x20\n      add\n      swap1\n      dup2\n      mstore\n      0x20\n      add\n      0x00\n      keccak256\n      sload\n        /* \"contracts/subquest-add-compound-1.sol\":1295:1344  balances[userAddress] * ceth.exchangeRateStored() */\n      tag_49\n      swap2\n      swap1\n      tag_50\n      jump\t// in\n    tag_49:\n        /* \"contracts/subquest-add-compound-1.sol\":1295:1351  balances[userAddress] * ceth.exchangeRateStored() / 1e18 */\n      tag_51\n      swap2\n      swap1\n      tag_52\n      jump\t// in\n    tag_51:\n        /* \"contracts/subquest-add-compound-1.sol\":1288:1351  return balances[userAddress] * ceth.exchangeRateStored() / 1e18 */\n      swap1\n      pop\n        /* \"contracts/subquest-add-compound-1.sol\":1208:1367  function getBalance(address userAddress) public view returns(uint256) {... */\n      swap2\n      swap1\n      pop\n      jump\t// out\n        /* \"#utility.yul\":7:146   */\n    tag_54:\n        /* \"#utility.yul\":53:58   */\n      0x00\n        /* \"#utility.yul\":91:97   */\n      dup2\n        /* \"#utility.yul\":78:98   */\n      calldataload\n        /* \"#utility.yul\":69:98   */\n      swap1\n      pop\n        /* \"#utility.yul\":107:140   */\n      tag_56\n        /* \"#utility.yul\":134:139   */\n      dup2\n        /* \"#utility.yul\":107:140   */\n      tag_57\n      jump\t// in\n    tag_56:\n        /* \"#utility.yul\":59:146   */\n      swap3\n      swap2\n      pop\n      pop\n      jump\t// out\n        /* \"#utility.yul\":152:295   */\n    tag_58:\n        /* \"#utility.yul\":209:214   */\n      0x00\n        /* \"#utility.yul\":240:246   */\n      dup2\n        /* \"#utility.yul\":234:247   */\n      mload\n        /* \"#utility.yul\":225:247   */\n      swap1\n      pop\n        /* \"#utility.yul\":256:289   */\n      tag_60\n        /* \"#utility.yul\":283:288   */\n      dup2\n        /* \"#utility.yul\":256:289   */\n      tag_61\n      jump\t// in\n    tag_60:\n        /* \"#utility.yul\":215:295   */\n      swap3\n      swap2\n      pop\n      pop\n      jump\t// out\n        /* \"#utility.yul\":301:563   */\n    tag_21:\n        /* \"#utility.yul\":360:366   */\n      0x00\n        /* \"#utility.yul\":409:411   */\n      0x20\n        /* \"#utility.yul\":397:406   */\n      dup3\n        /* \"#utility.yul\":388:395   */\n      dup5\n        /* \"#utility.yul\":384:407   */\n      sub\n        /* \"#utility.yul\":380:412   */\n      slt\n        /* \"#utility.yul\":377:379   */\n      iszero\n      tag_63\n      jumpi\n        /* \"#utility.yul\":425:426   */\n      0x00\n        /* \"#utility.yul\":422:423   */\n      dup1\n        /* \"#utility.yul\":415:427   */\n      revert\n        /* \"#utility.yul\":377:379   */\n    tag_63:\n        /* \"#utility.yul\":468:469   */\n      0x00\n        /* \"#utility.yul\":493:546   */\n      tag_64\n        /* \"#utility.yul\":538:545   */\n      dup5\n        /* \"#utility.yul\":529:535   */\n      dup3\n        /* \"#utility.yul\":518:527   */\n      dup6\n        /* \"#utility.yul\":514:536   */\n      add\n        /* \"#utility.yul\":493:546   */\n      tag_54\n      jump\t// in\n    tag_64:\n        /* \"#utility.yul\":483:546   */\n      swap2\n      pop\n        /* \"#utility.yul\":439:556   */\n      pop\n        /* \"#utility.yul\":367:563   */\n      swap3\n      swap2\n      pop\n      pop\n      jump\t// out\n        /* \"#utility.yul\":569:853   */\n    tag_37:\n        /* \"#utility.yul\":639:645   */\n      0x00\n        /* \"#utility.yul\":688:690   */\n      0x20\n        /* \"#utility.yul\":676:685   */\n      dup3\n        /* \"#utility.yul\":667:674   */\n      dup5\n        /* \"#utility.yul\":663:686   */\n      sub\n        /* \"#utility.yul\":659:691   */\n      slt\n        /* \"#utility.yul\":656:658   */\n      iszero\n      tag_66\n      jumpi\n        /* \"#utility.yul\":704:705   */\n      0x00\n        /* \"#utility.yul\":701:702   */\n      dup1\n        /* \"#utility.yul\":694:706   */\n      revert\n        /* \"#utility.yul\":656:658   */\n    tag_66:\n        /* \"#utility.yul\":747:748   */\n      0x00\n        /* \"#utility.yul\":772:836   */\n      tag_67\n        /* \"#utility.yul\":828:835   */\n      dup5\n        /* \"#utility.yul\":819:825   */\n      dup3\n        /* \"#utility.yul\":808:817   */\n      dup6\n        /* \"#utility.yul\":804:826   */\n      add\n        /* \"#utility.yul\":772:836   */\n      tag_58\n      jump\t// in\n    tag_67:\n        /* \"#utility.yul\":762:836   */\n      swap2\n      pop\n        /* \"#utility.yul\":718:846   */\n      pop\n        /* \"#utility.yul\":646:853   */\n      swap3\n      swap2\n      pop\n      pop\n      jump\t// out\n        /* \"#utility.yul\":859:977   */\n    tag_68:\n        /* \"#utility.yul\":946:970   */\n      tag_70\n        /* \"#utility.yul\":964:969   */\n      dup2\n        /* \"#utility.yul\":946:970   */\n      tag_71\n      jump\t// in\n    tag_70:\n        /* \"#utility.yul\":941:944   */\n      dup3\n        /* \"#utility.yul\":934:971   */\n      mstore\n        /* \"#utility.yul\":924:977   */\n      pop\n      pop\n      jump\t// out\n        /* \"#utility.yul\":983:1205   */\n    tag_15:\n        /* \"#utility.yul\":1076:1080   */\n      0x00\n        /* \"#utility.yul\":1114:1116   */\n      0x20\n        /* \"#utility.yul\":1103:1112   */\n      dup3\n        /* \"#utility.yul\":1099:1117   */\n      add\n        /* \"#utility.yul\":1091:1117   */\n      swap1\n      pop\n        /* \"#utility.yul\":1127:1198   */\n      tag_73\n        /* \"#utility.yul\":1195:1196   */\n      0x00\n        /* \"#utility.yul\":1184:1193   */\n      dup4\n        /* \"#utility.yul\":1180:1197   */\n      add\n        /* \"#utility.yul\":1171:1177   */\n      dup5\n        /* \"#utility.yul\":1127:1198   */\n      tag_68\n      jump\t// in\n    tag_73:\n        /* \"#utility.yul\":1081:1205   */\n      swap3\n      swap2\n      pop\n      pop\n      jump\t// out\n        /* \"#utility.yul\":1211:1516   */\n    tag_26:\n        /* \"#utility.yul\":1251:1254   */\n      0x00\n        /* \"#utility.yul\":1270:1290   */\n      tag_75\n        /* \"#utility.yul\":1288:1289   */\n      dup3\n        /* \"#utility.yul\":1270:1290   */\n      tag_71\n      jump\t// in\n    tag_75:\n        /* \"#utility.yul\":1265:1290   */\n      swap2\n      pop\n        /* \"#utility.yul\":1304:1324   */\n      tag_76\n        /* \"#utility.yul\":1322:1323   */\n      dup4\n        /* \"#utility.yul\":1304:1324   */\n      tag_71\n      jump\t// in\n    tag_76:\n        /* \"#utility.yul\":1299:1324   */\n      swap3\n      pop\n        /* \"#utility.yul\":1458:1459   */\n      dup3\n        /* \"#utility.yul\":1390:1456   */\n      0xffffffffffffffffffffffffffffffffffffffffffffffffffffffffffffffff\n        /* \"#utility.yul\":1386:1460   */\n      sub\n        /* \"#utility.yul\":1383:1384   */\n      dup3\n        /* \"#utility.yul\":1380:1461   */\n      gt\n        /* \"#utility.yul\":1377:1379   */\n      iszero\n      tag_77\n      jumpi\n        /* \"#utility.yul\":1464:1482   */\n      tag_78\n      tag_79\n      jump\t// in\n    tag_78:\n        /* \"#utility.yul\":1377:1379   */\n    tag_77:\n        /* \"#utility.yul\":1508:1509   */\n      dup3\n        /* \"#utility.yul\":1505:1506   */\n      dup3\n        /* \"#utility.yul\":1501:1510   */\n      add\n        /* \"#utility.yul\":1494:1510   */\n      swap1\n      pop\n        /* \"#utility.yul\":1255:1516   */\n      swap3\n      swap2\n      pop\n      pop\n      jump\t// out\n        /* \"#utility.yul\":1522:1707   */\n    tag_52:\n        /* \"#utility.yul\":1562:1563   */\n      0x00\n        /* \"#utility.yul\":1579:1599   */\n      tag_81\n        /* \"#utility.yul\":1597:1598   */\n      dup3\n        /* \"#utility.yul\":1579:1599   */\n      tag_71\n      jump\t// in\n    tag_81:\n        /* \"#utility.yul\":1574:1599   */\n      swap2\n      pop\n        /* \"#utility.yul\":1613:1633   */\n      tag_82\n        /* \"#utility.yul\":1631:1632   */\n      dup4\n        /* \"#utility.yul\":1613:1633   */\n      tag_71\n      jump\t// in\n    tag_82:\n        /* \"#utility.yul\":1608:1633   */\n      swap3\n      pop\n        /* \"#utility.yul\":1652:1653   */\n      dup3\n        /* \"#utility.yul\":1642:1644   */\n      tag_83\n      jumpi\n        /* \"#utility.yul\":1657:1675   */\n      tag_84\n      tag_85\n      jump\t// in\n    tag_84:\n        /* \"#utility.yul\":1642:1644   */\n    tag_83:\n        /* \"#utility.yul\":1699:1700   */\n      dup3\n        /* \"#utility.yul\":1696:1697   */\n      dup3\n        /* \"#utility.yul\":1692:1701   */\n      div\n        /* \"#utility.yul\":1687:1701   */\n      swap1\n      pop\n        /* \"#utility.yul\":1564:1707   */\n      swap3\n      swap2\n      pop\n      pop\n      jump\t// out\n        /* \"#utility.yul\":1713:2061   */\n    tag_50:\n        /* \"#utility.yul\":1753:1760   */\n      0x00\n        /* \"#utility.yul\":1776:1796   */\n      tag_87\n        /* \"#utility.yul\":1794:1795   */\n      dup3\n        /* \"#utility.yul\":1776:1796   */\n      tag_71\n      jump\t// in\n    tag_87:\n        /* \"#utility.yul\":1771:1796   */\n      swap2\n      pop\n        /* \"#utility.yul\":1810:1830   */\n      tag_88\n        /* \"#utility.yul\":1828:1829   */\n      dup4\n        /* \"#utility.yul\":1810:1830   */\n      tag_71\n      jump\t// in\n    tag_88:\n        /* \"#utility.yul\":1805:1830   */\n      swap3\n      pop\n        /* \"#utility.yul\":1998:1999   */\n      dup2\n        /* \"#utility.yul\":1930:1996   */\n      0xffffffffffffffffffffffffffffffffffffffffffffffffffffffffffffffff\n        /* \"#utility.yul\":1926:2000   */\n      div\n        /* \"#utility.yul\":1923:1924   */\n      dup4\n        /* \"#utility.yul\":1920:2001   */\n      gt\n        /* \"#utility.yul\":1915:1916   */\n      dup3\n        /* \"#utility.yul\":1908:1917   */\n      iszero\n        /* \"#utility.yul\":1901:1918   */\n      iszero\n        /* \"#utility.yul\":1897:2002   */\n      and\n        /* \"#utility.yul\":1894:1896   */\n      iszero\n      tag_89\n      jumpi\n        /* \"#utility.yul\":2005:2023   */\n      tag_90\n      tag_79\n      jump\t// in\n    tag_90:\n        /* \"#utility.yul\":1894:1896   */\n    tag_89:\n        /* \"#utility.yul\":2053:2054   */\n      dup3\n        /* \"#utility.yul\":2050:2051   */\n      dup3\n        /* \"#utility.yul\":2046:2055   */\n      mul\n        /* \"#utility.yul\":2035:2055   */\n      swap1\n      pop\n        /* \"#utility.yul\":1761:2061   */\n      swap3\n      swap2\n      pop\n      pop\n      jump\t// out\n        /* \"#utility.yul\":2067:2258   */\n    tag_30:\n        /* \"#utility.yul\":2107:2111   */\n      0x00\n        /* \"#utility.yul\":2127:2147   */\n      tag_92\n        /* \"#utility.yul\":2145:2146   */\n      dup3\n        /* \"#utility.yul\":2127:2147   */\n      tag_71\n      jump\t// in\n    tag_92:\n        /* \"#utility.yul\":2122:2147   */\n      swap2\n      pop\n        /* \"#utility.yul\":2161:2181   */\n      tag_93\n        /* \"#utility.yul\":2179:2180   */\n      dup4\n        /* \"#utility.yul\":2161:2181   */\n      tag_71\n      jump\t// in\n    tag_93:\n        /* \"#utility.yul\":2156:2181   */\n      swap3\n      pop\n        /* \"#utility.yul\":2200:2201   */\n      dup3\n        /* \"#utility.yul\":2197:2198   */\n      dup3\n        /* \"#utility.yul\":2194:2202   */\n      lt\n        /* \"#utility.yul\":2191:2193   */\n      iszero\n      tag_94\n      jumpi\n        /* \"#utility.yul\":2205:2223   */\n      tag_95\n      tag_79\n      jump\t// in\n    tag_95:\n        /* \"#utility.yul\":2191:2193   */\n    tag_94:\n        /* \"#utility.yul\":2250:2251   */\n      dup3\n        /* \"#utility.yul\":2247:2248   */\n      dup3\n        /* \"#utility.yul\":2243:2252   */\n      sub\n        /* \"#utility.yul\":2235:2252   */\n      swap1\n      pop\n        /* \"#utility.yul\":2112:2258   */\n      swap3\n      swap2\n      pop\n      pop\n      jump\t// out\n        /* \"#utility.yul\":2264:2360   */\n    tag_96:\n        /* \"#utility.yul\":2301:2308   */\n      0x00\n        /* \"#utility.yul\":2330:2354   */\n      tag_98\n        /* \"#utility.yul\":2348:2353   */\n      dup3\n        /* \"#utility.yul\":2330:2354   */\n      tag_99\n      jump\t// in\n    tag_98:\n        /* \"#utility.yul\":2319:2354   */\n      swap1\n      pop\n        /* \"#utility.yul\":2309:2360   */\n      swap2\n      swap1\n      pop\n      jump\t// out\n        /* \"#utility.yul\":2366:2492   */\n    tag_99:\n        /* \"#utility.yul\":2403:2410   */\n      0x00\n        /* \"#utility.yul\":2443:2485   */\n      0xffffffffffffffffffffffffffffffffffffffff\n        /* \"#utility.yul\":2436:2441   */\n      dup3\n        /* \"#utility.yul\":2432:2486   */\n      and\n        /* \"#utility.yul\":2421:2486   */\n      swap1\n      pop\n        /* \"#utility.yul\":2411:2492   */\n      swap2\n      swap1\n      pop\n      jump\t// out\n        /* \"#utility.yul\":2498:2575   */\n    tag_71:\n        /* \"#utility.yul\":2535:2542   */\n      0x00\n        /* \"#utility.yul\":2564:2569   */\n      dup2\n        /* \"#utility.yul\":2553:2569   */\n      swap1\n      pop\n        /* \"#utility.yul\":2543:2575   */\n      swap2\n      swap1\n      pop\n      jump\t// out\n        /* \"#utility.yul\":2581:2761   */\n    tag_79:\n        /* \"#utility.yul\":2629:2706   */\n      0x4e487b7100000000000000000000000000000000000000000000000000000000\n        /* \"#utility.yul\":2626:2627   */\n      0x00\n        /* \"#utility.yul\":2619:2707   */\n      mstore\n        /* \"#utility.yul\":2726:2730   */\n      0x11\n        /* \"#utility.yul\":2723:2724   */\n      0x04\n        /* \"#utility.yul\":2716:2731   */\n      mstore\n        /* \"#utility.yul\":2750:2754   */\n      0x24\n        /* \"#utility.yul\":2747:2748   */\n      0x00\n        /* \"#utility.yul\":2740:2755   */\n      revert\n        /* \"#utility.yul\":2767:2947   */\n    tag_85:\n        /* \"#utility.yul\":2815:2892   */\n      0x4e487b7100000000000000000000000000000000000000000000000000000000\n        /* \"#utility.yul\":2812:2813   */\n      0x00\n        /* \"#utility.yul\":2805:2893   */\n      mstore\n        /* \"#utility.yul\":2912:2916   */\n      0x12\n        /* \"#utility.yul\":2909:2910   */\n      0x04\n        /* \"#utility.yul\":2902:2917   */\n      mstore\n        /* \"#utility.yul\":2936:2940   */\n      0x24\n        /* \"#utility.yul\":2933:2934   */\n      0x00\n        /* \"#utility.yul\":2926:2941   */\n      revert\n        /* \"#utility.yul\":2953:3075   */\n    tag_57:\n        /* \"#utility.yul\":3026:3050   */\n      tag_105\n        /* \"#utility.yul\":3044:3049   */\n      dup2\n        /* \"#utility.yul\":3026:3050   */\n      tag_96\n      jump\t// in\n    tag_105:\n        /* \"#utility.yul\":3019:3024   */\n      dup2\n        /* \"#utility.yul\":3016:3051   */\n      eq\n        /* \"#utility.yul\":3006:3008   */\n      tag_106\n      jumpi\n        /* \"#utility.yul\":3065:3066   */\n      0x00\n        /* \"#utility.yul\":3062:3063   */\n      dup1\n        /* \"#utility.yul\":3055:3067   */\n      revert\n        /* \"#utility.yul\":3006:3008   */\n    tag_106:\n        /* \"#utility.yul\":2996:3075   */\n      pop\n      jump\t// out\n        /* \"#utility.yul\":3081:3203   */\n    tag_61:\n        /* \"#utility.yul\":3154:3178   */\n      tag_108\n        /* \"#utility.yul\":3172:3177   */\n      dup2\n        /* \"#utility.yul\":3154:3178   */\n      tag_71\n      jump\t// in\n    tag_108:\n        /* \"#utility.yul\":3147:3152   */\n      dup2\n        /* \"#utility.yul\":3144:3179   */\n      eq\n        /* \"#utility.yul\":3134:3136   */\n      tag_109\n      jumpi\n        /* \"#utility.yul\":3193:3194   */\n      0x00\n        /* \"#utility.yul\":3190:3191   */\n      dup1\n        /* \"#utility.yul\":3183:3195   */\n      revert\n        /* \"#utility.yul\":3134:3136   */\n    tag_109:\n        /* \"#utility.yul\":3124:3203   */\n      pop\n      jump\t// out\n\n    auxdata: 0xa26469706673582212205edfa722e4223308d9c6183b74bf5b251d7bfb53e8c15eebf319e16acd73218a64736f6c63430008040033\n}\n",
				"bytecode": {
					"linkReferences": {},
					"object": "60806040526000805573859e9d8a4edadfedb5a2ff311243af80f85a91b8600160006101000a81548173ffffffffffffffffffffffffffffffffffffffff021916908373ffffffffffffffffffffffffffffffffffffffff160217905550600160009054906101000a900473ffffffffffffffffffffffffffffffffffffffff16600260006101000a81548173ffffffffffffffffffffffffffffffffffffffff021916908373ffffffffffffffffffffffffffffffffffffffff1602179055503480156100cc57600080fd5b506106fd806100dc6000396000f3fe60806040526004361061004a5760003560e01c80631834ef4e1461004f5780633ccfd60b146100595780636f9fb98a14610063578063b163cc381461008e578063f8b2cb4f14610098575b600080fd5b6100576100d5565b005b6100616100ef565b005b34801561006f57600080fd5b50610078610214565b60405161008591906104cf565b60405180910390f35b61009661021d565b005b3480156100a457600080fd5b506100bf60048036038101906100ba919061046e565b61033e565b6040516100cc91906104cf565b60405180910390f35b346000808282546100e691906104ea565b92505081905550565b600033905060006100ff3361033e565b90508060005461010f91906105cb565b6000819055506000600360003373ffffffffffffffffffffffffffffffffffffffff1673ffffffffffffffffffffffffffffffffffffffff16815260200190815260200160002081905550600260009054906101000a900473ffffffffffffffffffffffffffffffffffffffff1673ffffffffffffffffffffffffffffffffffffffff1663db006a756101a13361033e565b6040518263ffffffff1660e01b81526004016101bd91906104cf565b602060405180830381600087803b1580156101d757600080fd5b505af11580156101eb573d6000803e3d6000fd5b505050506040513d601f19601f8201168201806040525081019061020f9190610497565b505050565b60008054905090565b34600360003373ffffffffffffffffffffffffffffffffffffffff1673ffffffffffffffffffffffffffffffffffffffff168152602001908152602001600020819055503460005461026f91906104ea565b60008190555042600460003373ffffffffffffffffffffffffffffffffffffffff1673ffffffffffffffffffffffffffffffffffffffff16815260200190815260200160002081905550600260009054906101000a900473ffffffffffffffffffffffffffffffffffffffff1673ffffffffffffffffffffffffffffffffffffffff16631249c58b346040518263ffffffff1660e01b81526004016000604051808303818588803b15801561032357600080fd5b505af1158015610337573d6000803e3d6000fd5b5050505050565b6000670de0b6b3a7640000600260009054906101000a900473ffffffffffffffffffffffffffffffffffffffff1673ffffffffffffffffffffffffffffffffffffffff1663182df0f56040518163ffffffff1660e01b815260040160206040518083038186803b1580156103b157600080fd5b505afa1580156103c5573d6000803e3d6000fd5b505050506040513d601f19601f820116820180604052508101906103e99190610497565b600360008573ffffffffffffffffffffffffffffffffffffffff1673ffffffffffffffffffffffffffffffffffffffff168152602001908152602001600020546104339190610571565b61043d9190610540565b9050919050565b60008135905061045381610699565b92915050565b600081519050610468816106b0565b92915050565b60006020828403121561048057600080fd5b600061048e84828501610444565b91505092915050565b6000602082840312156104a957600080fd5b60006104b784828501610459565b91505092915050565b6104c981610631565b82525050565b60006020820190506104e460008301846104c0565b92915050565b60006104f582610631565b915061050083610631565b9250827fffffffffffffffffffffffffffffffffffffffffffffffffffffffffffffffff038211156105355761053461063b565b5b828201905092915050565b600061054b82610631565b915061055683610631565b9250826105665761056561066a565b5b828204905092915050565b600061057c82610631565b915061058783610631565b9250817fffffffffffffffffffffffffffffffffffffffffffffffffffffffffffffffff04831182151516156105c0576105bf61063b565b5b828202905092915050565b60006105d682610631565b91506105e183610631565b9250828210156105f4576105f361063b565b5b828203905092915050565b600061060a82610611565b9050919050565b600073ffffffffffffffffffffffffffffffffffffffff82169050919050565b6000819050919050565b7f4e487b7100000000000000000000000000000000000000000000000000000000600052601160045260246000fd5b7f4e487b7100000000000000000000000000000000000000000000000000000000600052601260045260246000fd5b6106a2816105ff565b81146106ad57600080fd5b50565b6106b981610631565b81146106c457600080fd5b5056fea26469706673582212205edfa722e4223308d9c6183b74bf5b251d7bfb53e8c15eebf319e16acd73218a64736f6c63430008040033",
					"opcodes": "PUSH1 0x80 PUSH1 0x40 MSTORE PUSH1 0x0 DUP1 SSTORE PUSH20 0x859E9D8A4EDADFEDB5A2FF311243AF80F85A91B8 PUSH1 0x1 PUSH1 0x0 PUSH2 0x100 EXP DUP2 SLOAD DUP2 PUSH20 0xFFFFFFFFFFFFFFFFFFFFFFFFFFFFFFFFFFFFFFFF MUL NOT AND SWAP1 DUP4 PUSH20 0xFFFFFFFFFFFFFFFFFFFFFFFFFFFFFFFFFFFFFFFF AND MUL OR SWAP1 SSTORE POP PUSH1 0x1 PUSH1 0x0 SWAP1 SLOAD SWAP1 PUSH2 0x100 EXP SWAP1 DIV PUSH20 0xFFFFFFFFFFFFFFFFFFFFFFFFFFFFFFFFFFFFFFFF AND PUSH1 0x2 PUSH1 0x0 PUSH2 0x100 EXP DUP2 SLOAD DUP2 PUSH20 0xFFFFFFFFFFFFFFFFFFFFFFFFFFFFFFFFFFFFFFFF MUL NOT AND SWAP1 DUP4 PUSH20 0xFFFFFFFFFFFFFFFFFFFFFFFFFFFFFFFFFFFFFFFF AND MUL OR SWAP1 SSTORE POP CALLVALUE DUP1 ISZERO PUSH2 0xCC JUMPI PUSH1 0x0 DUP1 REVERT JUMPDEST POP PUSH2 0x6FD DUP1 PUSH2 0xDC PUSH1 0x0 CODECOPY PUSH1 0x0 RETURN INVALID PUSH1 0x80 PUSH1 0x40 MSTORE PUSH1 0x4 CALLDATASIZE LT PUSH2 0x4A JUMPI PUSH1 0x0 CALLDATALOAD PUSH1 0xE0 SHR DUP1 PUSH4 0x1834EF4E EQ PUSH2 0x4F JUMPI DUP1 PUSH4 0x3CCFD60B EQ PUSH2 0x59 JUMPI DUP1 PUSH4 0x6F9FB98A EQ PUSH2 0x63 JUMPI DUP1 PUSH4 0xB163CC38 EQ PUSH2 0x8E JUMPI DUP1 PUSH4 0xF8B2CB4F EQ PUSH2 0x98 JUMPI JUMPDEST PUSH1 0x0 DUP1 REVERT JUMPDEST PUSH2 0x57 PUSH2 0xD5 JUMP JUMPDEST STOP JUMPDEST PUSH2 0x61 PUSH2 0xEF JUMP JUMPDEST STOP JUMPDEST CALLVALUE DUP1 ISZERO PUSH2 0x6F JUMPI PUSH1 0x0 DUP1 REVERT JUMPDEST POP PUSH2 0x78 PUSH2 0x214 JUMP JUMPDEST PUSH1 0x40 MLOAD PUSH2 0x85 SWAP2 SWAP1 PUSH2 0x4CF JUMP JUMPDEST PUSH1 0x40 MLOAD DUP1 SWAP2 SUB SWAP1 RETURN JUMPDEST PUSH2 0x96 PUSH2 0x21D JUMP JUMPDEST STOP JUMPDEST CALLVALUE DUP1 ISZERO PUSH2 0xA4 JUMPI PUSH1 0x0 DUP1 REVERT JUMPDEST POP PUSH2 0xBF PUSH1 0x4 DUP1 CALLDATASIZE SUB DUP2 ADD SWAP1 PUSH2 0xBA SWAP2 SWAP1 PUSH2 0x46E JUMP JUMPDEST PUSH2 0x33E JUMP JUMPDEST PUSH1 0x40 MLOAD PUSH2 0xCC SWAP2 SWAP1 PUSH2 0x4CF JUMP JUMPDEST PUSH1 0x40 MLOAD DUP1 SWAP2 SUB SWAP1 RETURN JUMPDEST CALLVALUE PUSH1 0x0 DUP1 DUP3 DUP3 SLOAD PUSH2 0xE6 SWAP2 SWAP1 PUSH2 0x4EA JUMP JUMPDEST SWAP3 POP POP DUP2 SWAP1 SSTORE POP JUMP JUMPDEST PUSH1 0x0 CALLER SWAP1 POP PUSH1 0x0 PUSH2 0xFF CALLER PUSH2 0x33E JUMP JUMPDEST SWAP1 POP DUP1 PUSH1 0x0 SLOAD PUSH2 0x10F SWAP2 SWAP1 PUSH2 0x5CB JUMP JUMPDEST PUSH1 0x0 DUP2 SWAP1 SSTORE POP PUSH1 0x0 PUSH1 0x3 PUSH1 0x0 CALLER PUSH20 0xFFFFFFFFFFFFFFFFFFFFFFFFFFFFFFFFFFFFFFFF AND PUSH20 0xFFFFFFFFFFFFFFFFFFFFFFFFFFFFFFFFFFFFFFFF AND DUP2 MSTORE PUSH1 0x20 ADD SWAP1 DUP2 MSTORE PUSH1 0x20 ADD PUSH1 0x0 KECCAK256 DUP2 SWAP1 SSTORE POP PUSH1 0x2 PUSH1 0x0 SWAP1 SLOAD SWAP1 PUSH2 0x100 EXP SWAP1 DIV PUSH20 0xFFFFFFFFFFFFFFFFFFFFFFFFFFFFFFFFFFFFFFFF AND PUSH20 0xFFFFFFFFFFFFFFFFFFFFFFFFFFFFFFFFFFFFFFFF AND PUSH4 0xDB006A75 PUSH2 0x1A1 CALLER PUSH2 0x33E JUMP JUMPDEST PUSH1 0x40 MLOAD DUP3 PUSH4 0xFFFFFFFF AND PUSH1 0xE0 SHL DUP2 MSTORE PUSH1 0x4 ADD PUSH2 0x1BD SWAP2 SWAP1 PUSH2 0x4CF JUMP JUMPDEST PUSH1 0x20 PUSH1 0x40 MLOAD DUP1 DUP4 SUB DUP2 PUSH1 0x0 DUP8 DUP1 EXTCODESIZE ISZERO DUP1 ISZERO PUSH2 0x1D7 JUMPI PUSH1 0x0 DUP1 REVERT JUMPDEST POP GAS CALL ISZERO DUP1 ISZERO PUSH2 0x1EB JUMPI RETURNDATASIZE PUSH1 0x0 DUP1 RETURNDATACOPY RETURNDATASIZE PUSH1 0x0 REVERT JUMPDEST POP POP POP POP PUSH1 0x40 MLOAD RETURNDATASIZE PUSH1 0x1F NOT PUSH1 0x1F DUP3 ADD AND DUP3 ADD DUP1 PUSH1 0x40 MSTORE POP DUP2 ADD SWAP1 PUSH2 0x20F SWAP2 SWAP1 PUSH2 0x497 JUMP JUMPDEST POP POP POP JUMP JUMPDEST PUSH1 0x0 DUP1 SLOAD SWAP1 POP SWAP1 JUMP JUMPDEST CALLVALUE PUSH1 0x3 PUSH1 0x0 CALLER PUSH20 0xFFFFFFFFFFFFFFFFFFFFFFFFFFFFFFFFFFFFFFFF AND PUSH20 0xFFFFFFFFFFFFFFFFFFFFFFFFFFFFFFFFFFFFFFFF AND DUP2 MSTORE PUSH1 0x20 ADD SWAP1 DUP2 MSTORE PUSH1 0x20 ADD PUSH1 0x0 KECCAK256 DUP2 SWAP1 SSTORE POP CALLVALUE PUSH1 0x0 SLOAD PUSH2 0x26F SWAP2 SWAP1 PUSH2 0x4EA JUMP JUMPDEST PUSH1 0x0 DUP2 SWAP1 SSTORE POP TIMESTAMP PUSH1 0x4 PUSH1 0x0 CALLER PUSH20 0xFFFFFFFFFFFFFFFFFFFFFFFFFFFFFFFFFFFFFFFF AND PUSH20 0xFFFFFFFFFFFFFFFFFFFFFFFFFFFFFFFFFFFFFFFF AND DUP2 MSTORE PUSH1 0x20 ADD SWAP1 DUP2 MSTORE PUSH1 0x20 ADD PUSH1 0x0 KECCAK256 DUP2 SWAP1 SSTORE POP PUSH1 0x2 PUSH1 0x0 SWAP1 SLOAD SWAP1 PUSH2 0x100 EXP SWAP1 DIV PUSH20 0xFFFFFFFFFFFFFFFFFFFFFFFFFFFFFFFFFFFFFFFF AND PUSH20 0xFFFFFFFFFFFFFFFFFFFFFFFFFFFFFFFFFFFFFFFF AND PUSH4 0x1249C58B CALLVALUE PUSH1 0x40 MLOAD DUP3 PUSH4 0xFFFFFFFF AND PUSH1 0xE0 SHL DUP2 MSTORE PUSH1 0x4 ADD PUSH1 0x0 PUSH1 0x40 MLOAD DUP1 DUP4 SUB DUP2 DUP6 DUP9 DUP1 EXTCODESIZE ISZERO DUP1 ISZERO PUSH2 0x323 JUMPI PUSH1 0x0 DUP1 REVERT JUMPDEST POP GAS CALL ISZERO DUP1 ISZERO PUSH2 0x337 JUMPI RETURNDATASIZE PUSH1 0x0 DUP1 RETURNDATACOPY RETURNDATASIZE PUSH1 0x0 REVERT JUMPDEST POP POP POP POP POP JUMP JUMPDEST PUSH1 0x0 PUSH8 0xDE0B6B3A7640000 PUSH1 0x2 PUSH1 0x0 SWAP1 SLOAD SWAP1 PUSH2 0x100 EXP SWAP1 DIV PUSH20 0xFFFFFFFFFFFFFFFFFFFFFFFFFFFFFFFFFFFFFFFF AND PUSH20 0xFFFFFFFFFFFFFFFFFFFFFFFFFFFFFFFFFFFFFFFF AND PUSH4 0x182DF0F5 PUSH1 0x40 MLOAD DUP2 PUSH4 0xFFFFFFFF AND PUSH1 0xE0 SHL DUP2 MSTORE PUSH1 0x4 ADD PUSH1 0x20 PUSH1 0x40 MLOAD DUP1 DUP4 SUB DUP2 DUP7 DUP1 EXTCODESIZE ISZERO DUP1 ISZERO PUSH2 0x3B1 JUMPI PUSH1 0x0 DUP1 REVERT JUMPDEST POP GAS STATICCALL ISZERO DUP1 ISZERO PUSH2 0x3C5 JUMPI RETURNDATASIZE PUSH1 0x0 DUP1 RETURNDATACOPY RETURNDATASIZE PUSH1 0x0 REVERT JUMPDEST POP POP POP POP PUSH1 0x40 MLOAD RETURNDATASIZE PUSH1 0x1F NOT PUSH1 0x1F DUP3 ADD AND DUP3 ADD DUP1 PUSH1 0x40 MSTORE POP DUP2 ADD SWAP1 PUSH2 0x3E9 SWAP2 SWAP1 PUSH2 0x497 JUMP JUMPDEST PUSH1 0x3 PUSH1 0x0 DUP6 PUSH20 0xFFFFFFFFFFFFFFFFFFFFFFFFFFFFFFFFFFFFFFFF AND PUSH20 0xFFFFFFFFFFFFFFFFFFFFFFFFFFFFFFFFFFFFFFFF AND DUP2 MSTORE PUSH1 0x20 ADD SWAP1 DUP2 MSTORE PUSH1 0x20 ADD PUSH1 0x0 KECCAK256 SLOAD PUSH2 0x433 SWAP2 SWAP1 PUSH2 0x571 JUMP JUMPDEST PUSH2 0x43D SWAP2 SWAP1 PUSH2 0x540 JUMP JUMPDEST SWAP1 POP SWAP2 SWAP1 POP JUMP JUMPDEST PUSH1 0x0 DUP2 CALLDATALOAD SWAP1 POP PUSH2 0x453 DUP2 PUSH2 0x699 JUMP JUMPDEST SWAP3 SWAP2 POP POP JUMP JUMPDEST PUSH1 0x0 DUP2 MLOAD SWAP1 POP PUSH2 0x468 DUP2 PUSH2 0x6B0 JUMP JUMPDEST SWAP3 SWAP2 POP POP JUMP JUMPDEST PUSH1 0x0 PUSH1 0x20 DUP3 DUP5 SUB SLT ISZERO PUSH2 0x480 JUMPI PUSH1 0x0 DUP1 REVERT JUMPDEST PUSH1 0x0 PUSH2 0x48E DUP5 DUP3 DUP6 ADD PUSH2 0x444 JUMP JUMPDEST SWAP2 POP POP SWAP3 SWAP2 POP POP JUMP JUMPDEST PUSH1 0x0 PUSH1 0x20 DUP3 DUP5 SUB SLT ISZERO PUSH2 0x4A9 JUMPI PUSH1 0x0 DUP1 REVERT JUMPDEST PUSH1 0x0 PUSH2 0x4B7 DUP5 DUP3 DUP6 ADD PUSH2 0x459 JUMP JUMPDEST SWAP2 POP POP SWAP3 SWAP2 POP POP JUMP JUMPDEST PUSH2 0x4C9 DUP2 PUSH2 0x631 JUMP JUMPDEST DUP3 MSTORE POP POP JUMP JUMPDEST PUSH1 0x0 PUSH1 0x20 DUP3 ADD SWAP1 POP PUSH2 0x4E4 PUSH1 0x0 DUP4 ADD DUP5 PUSH2 0x4C0 JUMP JUMPDEST SWAP3 SWAP2 POP POP JUMP JUMPDEST PUSH1 0x0 PUSH2 0x4F5 DUP3 PUSH2 0x631 JUMP JUMPDEST SWAP2 POP PUSH2 0x500 DUP4 PUSH2 0x631 JUMP JUMPDEST SWAP3 POP DUP3 PUSH32 0xFFFFFFFFFFFFFFFFFFFFFFFFFFFFFFFFFFFFFFFFFFFFFFFFFFFFFFFFFFFFFFFF SUB DUP3 GT ISZERO PUSH2 0x535 JUMPI PUSH2 0x534 PUSH2 0x63B JUMP JUMPDEST JUMPDEST DUP3 DUP3 ADD SWAP1 POP SWAP3 SWAP2 POP POP JUMP JUMPDEST PUSH1 0x0 PUSH2 0x54B DUP3 PUSH2 0x631 JUMP JUMPDEST SWAP2 POP PUSH2 0x556 DUP4 PUSH2 0x631 JUMP JUMPDEST SWAP3 POP DUP3 PUSH2 0x566 JUMPI PUSH2 0x565 PUSH2 0x66A JUMP JUMPDEST JUMPDEST DUP3 DUP3 DIV SWAP1 POP SWAP3 SWAP2 POP POP JUMP JUMPDEST PUSH1 0x0 PUSH2 0x57C DUP3 PUSH2 0x631 JUMP JUMPDEST SWAP2 POP PUSH2 0x587 DUP4 PUSH2 0x631 JUMP JUMPDEST SWAP3 POP DUP2 PUSH32 0xFFFFFFFFFFFFFFFFFFFFFFFFFFFFFFFFFFFFFFFFFFFFFFFFFFFFFFFFFFFFFFFF DIV DUP4 GT DUP3 ISZERO ISZERO AND ISZERO PUSH2 0x5C0 JUMPI PUSH2 0x5BF PUSH2 0x63B JUMP JUMPDEST JUMPDEST DUP3 DUP3 MUL SWAP1 POP SWAP3 SWAP2 POP POP JUMP JUMPDEST PUSH1 0x0 PUSH2 0x5D6 DUP3 PUSH2 0x631 JUMP JUMPDEST SWAP2 POP PUSH2 0x5E1 DUP4 PUSH2 0x631 JUMP JUMPDEST SWAP3 POP DUP3 DUP3 LT ISZERO PUSH2 0x5F4 JUMPI PUSH2 0x5F3 PUSH2 0x63B JUMP JUMPDEST JUMPDEST DUP3 DUP3 SUB SWAP1 POP SWAP3 SWAP2 POP POP JUMP JUMPDEST PUSH1 0x0 PUSH2 0x60A DUP3 PUSH2 0x611 JUMP JUMPDEST SWAP1 POP SWAP2 SWAP1 POP JUMP JUMPDEST PUSH1 0x0 PUSH20 0xFFFFFFFFFFFFFFFFFFFFFFFFFFFFFFFFFFFFFFFF DUP3 AND SWAP1 POP SWAP2 SWAP1 POP JUMP JUMPDEST PUSH1 0x0 DUP2 SWAP1 POP SWAP2 SWAP1 POP JUMP JUMPDEST PUSH32 0x4E487B7100000000000000000000000000000000000000000000000000000000 PUSH1 0x0 MSTORE PUSH1 0x11 PUSH1 0x4 MSTORE PUSH1 0x24 PUSH1 0x0 REVERT JUMPDEST PUSH32 0x4E487B7100000000000000000000000000000000000000000000000000000000 PUSH1 0x0 MSTORE PUSH1 0x12 PUSH1 0x4 MSTORE PUSH1 0x24 PUSH1 0x0 REVERT JUMPDEST PUSH2 0x6A2 DUP2 PUSH2 0x5FF JUMP JUMPDEST DUP2 EQ PUSH2 0x6AD JUMPI PUSH1 0x0 DUP1 REVERT JUMPDEST POP JUMP JUMPDEST PUSH2 0x6B9 DUP2 PUSH2 0x631 JUMP JUMPDEST DUP2 EQ PUSH2 0x6C4 JUMPI PUSH1 0x0 DUP1 REVERT JUMPDEST POP JUMP INVALID LOG2 PUSH5 0x6970667358 0x22 SLT KECCAK256 0x5E 0xDF 0xA7 0x22 0xE4 0x22 CALLER ADDMOD 0xD9 0xC6 XOR EXTCODESIZE PUSH21 0xBF5B251D7BFB53E8C15EEBF319E16ACD73218A6473 PUSH16 0x6C634300080400330000000000000000 "
				},
				"gasEstimates": {
					"creation": {
						"codeDepositCost": "357800",
						"executionCost": "47969",
						"totalCost": "405769"
					},
					"external": {
						"addBalance()": "infinite",
						"addMoneyToContract()": "infinite",
						"getBalance(address)": "infinite",
						"getContractBalance()": "1159",
						"withdraw()": "infinite"
					}
				},
				"methodIdentifiers": {
					"addBalance()": "b163cc38",
					"addMoneyToContract()": "1834ef4e",
					"getBalance(address)": "f8b2cb4f",
					"getContractBalance()": "6f9fb98a",
					"withdraw()": "3ccfd60b"
				}
			},
			"storageLayout": {
				"storage": [
					{
						"astId": 27,
						"contract": "contracts/subquest-add-compound-1.sol:SmartBankAccount",
						"label": "totalContractBalance",
						"offset": 0,
						"slot": "0",
						"type": "t_uint256"
					},
					{
						"astId": 30,
						"contract": "contracts/subquest-add-compound-1.sol:SmartBankAccount",
						"label": "COMPOUND_CETH_ADDRESS",
						"offset": 0,
						"slot": "1",
						"type": "t_address"
					},
					{
						"astId": 36,
						"contract": "contracts/subquest-add-compound-1.sol:SmartBankAccount",
						"label": "ceth",
						"offset": 0,
						"slot": "2",
						"type": "t_contract(cETH)24"
					},
					{
						"astId": 48,
						"contract": "contracts/subquest-add-compound-1.sol:SmartBankAccount",
						"label": "balances",
						"offset": 0,
						"slot": "3",
						"type": "t_mapping(t_address,t_uint256)"
					},
					{
						"astId": 52,
						"contract": "contracts/subquest-add-compound-1.sol:SmartBankAccount",
						"label": "depositTimestamps",
						"offset": 0,
						"slot": "4",
						"type": "t_mapping(t_address,t_uint256)"
					}
				],
				"types": {
					"t_address": {
						"encoding": "inplace",
						"label": "address",
						"numberOfBytes": "20"
					},
					"t_contract(cETH)24": {
						"encoding": "inplace",
						"label": "contract cETH",
						"numberOfBytes": "20"
					},
					"t_mapping(t_address,t_uint256)": {
						"encoding": "mapping",
						"key": "t_address",
						"label": "mapping(address => uint256)",
						"numberOfBytes": "32",
						"value": "t_uint256"
					},
					"t_uint256": {
						"encoding": "inplace",
						"label": "uint256",
						"numberOfBytes": "32"
					}
				}
			},
			"userdoc": {
				"kind": "user",
				"methods": {},
				"version": 1
			}
		}
	}
}